:020000040000FA
:1000000002002EC0E0C2CFE509640A45087006B2BE
:1000100090F508F5090509E50970020508D0E032F8
:100020007597DE7597AD2275A50122020003787FD2
:10003000E4F6D8FD7581090200750200DCE493A3A3
:10004000F8E493A34003F68001F208DFF48029E48A
:1000500093A3F85407240CC8C333C4540F4420C8D6
:10006000834004F456800146F6DFE4800B0102046D
:1000700008102040809000E3E47E019360BCA3FF61
:10008000543F30E509541FFEE493A360010ECF54A2
:10009000C025E060A840B8E493A3FAE493A3F8E491
:1000A00093A3C8C582C8CAC583CAF0A3C8C582C8FD
:1000B000CAC583CADFE9DEE780BEE5C8540453C879
:1000C000FB75CB9C75CA4F43C80442C8221200205E
:1000D0001200271200E81200BA0200EC1200CDD282
:1000E000AF80FE020800000075E3402275A8A02240
:00000001FF
