:020000040000FA
:0A0000000200F653DF7F75DC0822D2
:10000B0002020D750C00750D017FC87E0012039066
:10001B00750C00750D037FC87E00120390E50D254E
:10002B00E0F50DE50C33F50C7FC87E00120390E56F
:10003B000D25E0F50DE50C33F50C7FC87E001203A2
:10004B0090E50D25E0F50DE50C33F50C7FC87E0032
:10005B00120390E50D25E0F50DE50C33F50C7FC88B
:10006B007E00120390E50D25E0F50DE50C33F50C44
:10007B007FC87E00120390E50D25E0F50DE50C33EE
:10008B00F50C7FC87E00120390E50D25E0F50DE51C
:10009B000C33F50C7FC87E00120390E50DAE0C7887
:1000AB0002C333CE33CED8F9F50D8E0C7FC87E004C
:1000BB00120390E50DAE0C7802C333CE33CED8F9D4
:1000CB00F50D8E0C7FC87E00120390750C20750DFC
:1000DB00007FC87E00120390E50D25E0F50DE50CC1
:1000EB0033F50C7FC87E0012039022787FE4F6D89C
:1000FB00FD75811302013D02030DE493A3F8E49314
:10010B00A34003F68001F208DFF48029E493A3F8FF
:10011B005407240CC8C333C4540F4420C883400471
:10012B00F456800146F6DFE4800B01020408102030
:10013B004080900457E47E019360BCA3FF543F3092
:10014B00E509541FFEE493A360010ECF54C025E0D4
:10015B0060A840B8E493A3FAE493A3F8E493A3C88C
:10016B00C582C8CAC583CAF0A3C8C582C8CAC5831D
:10017B00CADFE9DEE780BEC2D5EC30E709B2D5E4D1
:10018B00C39DFDE49CFCEE30E715B2D5E4C39FFFA5
:10019B00E49EFE1201B8C3E49DFDE49CFC800312B7
:1001AB0001B830D507C3E49FFFE49EFE22BC000BD1
:1001BB00BE0029EF8DF084FFADF022E4CCF875F092
:1001CB0008EF2FFFEE33FEEC33FCEE9DEC98400571
:1001DB00FCEE9DFE0FD5F0E9E4CEFD22EDF8F5F037
:1001EB00EE8420D21CFEADF075F008EF2FFFED333F
:1001FB00FD4007985006D5F0F222C398FD0FD5F0BD
:10020B00EA22C0E0C0D0050BE50B7002050AE50D34
:10021B00139297E50DA2E19293E50DA2E29292E57E
:10022B000DA2E39291E50DA2E49295E50DA2E59264
:10023B0096E50DA2E69285E50D339284E50C1392BB
:10024B0081E50CA2E19282E50CA2E29287E50CA279
:10025B00E39286E50CA2E49290E50CA2E59283E58D
:10026B000CA2E69280C28DD0D0D0E032AC0EAD0F96
:10027B00AE10AF117810EC4D4E4F70047CA57DA5E0
:10028B00C3EC13FCED13FDEE13FEEF13FF5010EC5C
:10029B0064CCFCED644CFDEE644EFEEF64CEFFD8F7
:1002AB00DF8C0E8D0F8E108F11EE547FFE228E0E73
:1002BB008F0F74A5F510F51122750800750919C378
:1002CB00E50D94FFE50C648094FF5035050DE50DAD
:1002DB007002050CAF09AE08120390D3E509940226
:1002EB00E5086480948040D7AE0CAF0D7C007D8018
:1002FB00120182ED4C70C8E509150970C215088012
:10030B00BE221203B0120464D2AF12034D12046466
:10031B001203D512046412000E1204641203F812B5
:10032B0004641203F81204641203F8120464120238
:10033B00C412046412043C12046412043C120464DC
:10034B0080C8750C00750D0112038C12038112030A
:10035B008112038112038112038112038112038123
:10036B001203811203811203811203811203811282
:10037B00038112038122E50D25E0F50DE50C33F524
:10038B000C7F647E00E50B2FFFE50A3EFEEFB50BFD
:10039B00FCEEB50AF8D3EF950BE50A6480F8EE6432
:1003AB00809850E92285A7121204841200031204CC
:1003BB004A12042912049612048D12041312047AA1
:1003CB0012047012049D8512A722E4F512F5131284
:1003DB0002778E0C8F0D12038C0513E5137002053B
:1003EB0012C39432E5126480948040E322750C1F93
:1003FB00750DFF7FC87E00120390750C60750D00A4
:10040B007FC87E0012039022AF885388AF758CB1E2
:10041B00758ADAEF5440FEEF54104E42882243D5D2
:10042B0010E4F5A77590C075A5EF75A70F759BEF39
:10043B002274FFF50CF50D7FC87E0012039022E4A9
:10044B00F58075A4FF75A70F7599FF22020A0000AE
:10045B00020C00000208000000E4F50CF50D7FC84B
:10046B00FE12039022758E0475890143881022E5D4
:10047B00C8540453C8FB42C822E4F5A753D9BFF5AF
:10048B00D92275A904E5A930E7FB22E4F5A775E3AA
:06049B00402275A8822238
:00000001FF
